:100000000C9463000C948B000C948B000C948B006C
:100010000C948B000C948B000C948B000C948B0034
:100020000C948B000C948B000C948B000C948B0024
:100030000C948B000C948B000C948B000C948B0014
:100040000C9498040C948B000C94B7070C94E9075B
:100050000C948B000C948B000C948B000C948B00F4
:100060000C948B000C948B0000000008000201002F
:100070000003040700000000000000000102040863
:100080001020408001020408102001020408102002
:10009000040404040404040402020202020203032E
:1000A00003030303000000002300260029000000D2
:1000B0000000250028002B0000000000240027007D
:1000C0002A003701190811241FBECFEFD8E0DEBF88
:1000D000CDBF11E0A0E0B1E0E6E6F9E102C0059095
:1000E0000D92A435B107D9F722E0A4E5B1E001C033
:1000F0001D92A831B207E1F710E0C6ECD0E004C0D1
:100100002297FE010E94AD0CC23CD107C9F70E94A4
:100110005D080C94B10C0C94000026E040E855E218
:1001200060E070E08BE791E00E94550760E071E0CD
:100130008BE791E00E94C70820E042E060E18AE599
:1001400091E00E94070240E060E08AE591E00E94B1
:10015000ED0160E071E08AE591E00E94AA0868EE96
:1001600073E080E090E00C9405058F929F92AF922F
:10017000BF92CF92DF92EF92FF9284E591E00E94CE
:10018000F9034B015C0184E591E00E9410046B01CE
:100190007C016EE071E08BE791E00E94AA082AE002
:1001A00030E0B501A4018BE791E00E94670A65E1A8
:1001B00071E08BE791E00E94C7088AE591E00E9418
:1001C000E60140E060E08AE591E00E94ED016EE02A
:1001D00071E08AE591E00E94AA0840E066E08AE5C5
:1001E00091E00E94ED012AE030E0B501A4018AE52A
:1001F00091E00E94670A6EE171E08BE791E00E9456
:10020000AA0822E030E0B701A6018BE791E00E9446
:10021000670A6BE271E08BE791E00E94C70841E05A
:1002200060E08AE591E00E94ED016EE171E08AE50F
:1002300091E00E94AA0841E06CE08AE591E00E940A
:10024000ED0122E030E0B701A6018AE591E00E94CD
:10025000670A64EF71E080E090E0FF90EF90DF903C
:10026000CF90BF90AF909F908F900C940505CF9248
:10027000EF920F9389E0C82E98E0E92E07E026E080
:1002800045E064E08AE591E00E94A50243E050E089
:1002900062E070E084E591E00F91EF90CF900C94D4
:1002A000CB02CF93DF93EC0160E08E810E94D405F6
:1002B00081E090E00E942D0561E08E810E94D405CE
:1002C00081E090E00E942D0560E08E810E94D405BF
:1002D00084E690E0DF91CF910C942D05EF92FF9290
:1002E0000F931F93CF93DF938C01C0E0D0E0E62EF5
:1002F000F12CB7010C2E02C0759567950A94E2F7B0
:100300006170F801EC0FFD1F87810E94D4052196D2
:10031000C430D10571F7C801DF91CF911F910F91C2
:10032000FF90EF900C945101EF92FF920F931F9367
:10033000CF93DF938C01C0E0D0E0E62EF12CB70123
:100340000C2E02C0759567950A94E2F76170F8016A
:10035000EC0FFD1F87810E94D4052196C830D1057E
:1003600071F7C801DF91CF911F910F91FF90EF902E
:100370000C9451011F93CF93DF93EC01162F642F40
:100380008C810E94D4058D818F3F19F060E00E941E
:10039000D4058F85612F84FF06C0CE01DF91CF91F8
:1003A0001F910C94940170E084E0759567958A958F
:1003B000E1F7CE010E946E01612FCE01DF91CF9156
:1003C0001F910C946E0140E00C94BA0161E00E9410
:1003D000E30180ED97E00C942D05443008F043E0F4
:1003E000FC012389421710F04FEF420FFC01E40F8C
:1003F000F11D2489260F2068622F0C94E301FC0173
:100400006089262F2460208B6C600C94E3010F938D
:100410001F93CF93DF93EC01423018F08F858860F3
:100420008F874B8B1C8A80E48D8B6E8B70E0605CB9
:100430007F4F6F8B222329F0413019F48F85846020
:100440008F8761E08C810E949B058D818F3F19F021
:1004500061E00E949B0561E08E810E949B0500E0A7
:1004600010E08F8584FF03C088E090E002C084E044
:1004700090E00817190754F4FE01E00FF11F61E046
:1004800087810E949B050F5F1F4FEBCF80E593ECA8
:100490000E942D0560E08C810E94D40560E08E8171
:1004A0000E94D4058D818F3F19F060E00E94D40531
:1004B0006F8564FD1DC063E0CE010E946E0184E97A
:1004C00091E10E942D0563E0CE010E946E0184E956
:1004D00091E10E942D0563E0CE010E946E0186E944
:1004E00090E00E942D0562E0CE010E946E0116C0D0
:1004F0006062CE010E94E30184E991E10E942D0532
:100500006F856062CE010E94E30186E990E00E945F
:100510002D056F856062CE010E94E3016F856062E8
:10052000CE010E94E30184E0888BCE010E94FF018E
:10053000CE010E94E60182E0898B66E0CE01DF9168
:10054000CF911F910F910C94E301CF92EF920F93F3
:10055000FC011382128281E391E0918380836483A2
:100560008FEF8583468327830087E186C2861386C3
:10057000148615861686178620E041E060E1CF01DB
:100580000F91EF90CF900C94070241E00E94BA01C6
:1005900081E090E00895FC0171836083538342837E
:1005A0000895CF92DF92EF92FF920F931F93CF9314
:1005B000DF93C62ED42E790100E010E0C0E0D0E039
:1005C0000E151F05C4F461E08D2D0E94D4056AE06C
:1005D00070E080E090E00E940505CC0FDD1F8C2DBF
:1005E0000E940A06C80FD91F60E08D2D0E94D40515
:1005F0000F5F1F4FE5CFCE01DF91CF911F910F917C
:10060000FF90EF90DF90CF9008951F93CF93DF93EB
:10061000162FC42FD22F61E0842F0E949B0561E02A
:100620008D2F0E949B0561E08C2F0E94D40561E014
:100630008D2F0E94D40560E08C2F0E94D40560E0CD
:100640008D2F0E94D40561E08D2F0E94D40561E0BA
:100650008C2F0E94D40560E08D2F0E94D405212F9D
:1006600041E06D2F8C2F0E94330661E08D2F0E9498
:10067000D40560E08C2F0E949B058C2F0E940A06F7
:1006800060E08D2F0E94D4058C2FDF91CF911F91B8
:100690000C940A061F93CF93DF93162F60E0812FEF
:1006A0000E949B05C4E6D0E06AE070E080E090E044
:1006B0000E940505812F0E940A06892B11F02197BF
:1006C00099F7DF91CF911F910895CF92DF92EF922A
:1006D000FF920F931F93CF93DF938C01F62ED72EAB
:1006E000E42EC52E60E08F2D0E949B0561E08E2DCB
:1006F0000E949B0528E030E04E2D5C2D6F2D7D2D56
:10070000C8010E94D102D82F80E0C82F61E08F2D50
:100710000E949B0561E08F2D0E94D40560E08F2D23
:100720000E94D40561E08E2D0E94D40560E08E2DDC
:100730000E94D40560E08F2D0E949B0528E030E0E8
:100740004E2D5C2D6F2D7D2DC8010E94D1028C2B6A
:100750009D2BDF91CF911F910F91FF90EF90DF9034
:10076000CF900895CF93DF93D62FC42F61E08D2FC4
:100770000E949B0561E08C2F0E949B0561E08D2FFC
:100780000E94D40561E08C2F0E94D40560E08C2F7C
:10079000DF91CF910C94D4050F931F93CF93DF93E8
:1007A000EC012A813B814881598163E070E00E941D
:1007B000050368817981CE010E944A034A815B81E9
:1007C00068817981CE010E9465038C014A815B8139
:1007D00068817981CE010E94B203B801882777FD34
:1007E0008095982F0E946E0BDF91CF911F910F91F2
:1007F00008950E94CC030E943B0B882777FD8095CB
:10080000982F0E946E0B2AE037ED43E25CE30E94D2
:10081000220C20E030E040E252E40E946A0A08958F
:100820004F925F926F927F928F929F92AF92BF9200
:10083000CF92DF92EF92FF92CF93DF93EC012A8168
:100840003B814881598165E070E00E940503688121
:100850007981CE010E944A034A815B816881798156
:10086000CE010E9465037C014A815B8168817981A8
:10087000CE010E94B203B701882777FD8095982F9B
:100880000E946E0B6B017C0124E533EE45E25DE3D3
:100890000E94220C20E030E040E850E40E946A0A06
:1008A0004B015C0122EA37EE4BE356EBC701B60180
:1008B0000E94220CA70196010E94220C9B01AC0110
:1008C000C501B4010E946B0A4B015C01CE010E947C
:1008D000F90320E030E048EC51E40E946A0A2B0161
:1008E0003C012CEA35EC47EA58E3C701B6010E9407
:1008F000220C2AE037ED43E25CE30E946B0A9B0185
:10090000AC01C301B2010E94220CA50194010E9416
:100910006B0ADF91CF91FF90EF90DF90CF90BF9067
:10092000AF909F908F907F906F905F904F900895C1
:100930001F920F920FB60F9211242F933F938F9314
:100940009F93AF93BF938091730190917401A09195
:100950007501B09176013091720123E0230F2D379C
:1009600020F40196A11DB11D05C026E8230F0296B3
:10097000A11DB11D209372018093730190937401A6
:10098000A0937501B09376018091770190917801E1
:10099000A0917901B0917A010196A11DB11D8093BA
:1009A000770190937801A0937901B0937A01BF9178
:1009B000AF919F918F913F912F910F900FBE0F900C
:1009C0001F9018953FB7F894809177019091780126
:1009D000A0917901B0917A0126B5A89B05C02F3F5F
:1009E00019F00196A11DB11D3FBF6627782F892FF1
:1009F0009A2F620F711D811D911D42E0660F771FB6
:100A0000881F991F4A95D1F70895CF92DF92EF92F0
:100A1000FF92CF93DF936B017C010E94E204EB0114
:100A2000C114D104E104F10489F00E94690A0E9412
:100A3000E2046C1B7D0B683E734090F381E0C81AA2
:100A4000D108E108F108C851DC4FEACFDF91CF911E
:100A5000FF90EF90DF90CF900895019739F0880FC5
:100A6000991F880F991F02970197F1F708957894BD
:100A700084B5826084BD84B5816084BD85B58260A3
:100A800085BD85B5816085BDEEE6F0E08081816041
:100A90008083E1E8F0E01082808182608083808141
:100AA00081608083E0E8F0E0808181608083E1EB19
:100AB000F0E0808184608083E0EBF0E08081816001
:100AC0008083EAE7F0E080818460808380818260B7
:100AD00080838081816080838081806880831092A0
:100AE000C1000895833081F028F4813099F082307C
:100AF000A1F008958730A9F08830B9F08430D1F49E
:100B0000809180008F7D03C0809180008F778093DB
:100B10008000089584B58F7702C084B58F7D84BD31
:100B200008958091B0008F7703C08091B0008F7DD1
:100B30008093B0000895CF93DF9390E0FC01E458D8
:100B4000FF4F2491FC01E057FF4F8491882349F126
:100B500090E0880F991FFC01E854FF4FA591B491D4
:100B600082559F4FFC01C591D4919FB7611108C078
:100B7000F8948C91209582238C93888182230AC0DB
:100B8000623051F4F8948C91322F309583238C93FA
:100B90008881822B888304C0F8948C91822B8C935B
:100BA0009FBFDF91CF9108950F931F93CF93DF9352
:100BB0001F92CDB7DEB7282F30E0F901E859FF4F7B
:100BC0008491F901E458FF4F1491F901E057FF4F68
:100BD00004910023C9F0882321F069830E947205E3
:100BE0006981E02FF0E0EE0FFF1FE255FF4FA59166
:100BF000B4919FB7F8948C91611103C01095812333
:100C000001C0812B8C939FBF0F90DF91CF911F91DB
:100C10000F910895CF93DF93282F30E0F901E85921
:100C2000FF4F8491F901E458FF4FD491F901E05747
:100C3000FF4FC491CC2391F081110E947205EC2FDB
:100C4000F0E0EE0FFF1FEC55FF4FA591B4912C91F2
:100C50002D2381E090E021F480E002C080E090E06C
:100C6000DF91CF910895BF92CF92DF92EF92FF92E2
:100C70000F931F93CF93DF93C82ED62EB42EC7E0C9
:100C8000D0E0022F10E087E0E82EF12CB1100AC06E
:100C9000F701EC1BFD0BB80102C075956795EA954D
:100CA000E2F707C0B8010C2E02C0759567950A944B
:100CB000E2F7617077278C2D0E94D40561E08D2DBD
:100CC0000E94D40560E08D2D0E94D4052197F0F696
:100CD000DF91CF911F910F91FF90EF90DF90CF9018
:100CE000BF900895FC01818D228D90E0805C9F4F24
:100CF000821B91098F7399270895FC01918D828D34
:100D0000981731F0828DE80FF11D858D90E00895E0
:100D10008FEF9FEF0895FC01918D828D981761F000
:100D2000828DDF01A80FB11D5D968C91928D9F5F22
:100D30009F73928F90E008958FEF9FEF08958FE05B
:100D400098E0892B49F080E090E0892B29F00E94FF
:100D50000F0881110C9400000895FC01848DDF01BF
:100D6000A80FB11DA35ABF4F2C91848D90E001961E
:100D70008F739927848FA689B7892C93A089B1890D
:100D80008C9180648C93938D848D981306C0028817
:100D9000F389E02D80818F7D80830895CF93DF9349
:100DA000EC01888D8823C9F0EA89FB89808185FD63
:100DB00005C0A889B9898C9186FD0FC00FB607FCC4
:100DC000F5CF808185FFF2CFA889B9898C9185FF05
:100DD000EDCFCE010E94AD06E7CFDF91CF91089510
:100DE000CF92DF92FF920F931F93CF93DF931F92C7
:100DF000CDB7DEB76C01DC015B969C915B975C968E
:100E00008C915C97981307C05096ED91FC91519787
:100E1000808185FD32C0F601038D10E00F5F1F4F0A
:100E20000F731127F02EF601848DF81211C00FB642
:100E300007FCF9CFD6015096ED91FC915197808136
:100E400085FFF1CFC60169830E94AD066981EBCFB2
:100E5000838DE80FF11DE35AFF4F6083D6015B9647
:100E60000C935B975296ED91FC9153978081806231
:100E7000808381E058968C930DC0D6015696ED91F3
:100E8000FC91579760835096ED91FC91519780812A
:100E90008064808381E090E00F90DF91CF911F917B
:100EA0000F91FF90DF90CF900895BF92CF92DF9285
:100EB000EF92FF92CF93DF93EC016A017B01B22E98
:100EC000E889F98982E08083411581EE5807610540
:100ED0007105A1F060E079E08DE390E0A701960153
:100EE0000E94890C215031094109510956954795B5
:100EF00037952795211580E1380798F0E889F98919
:100F0000108260E874E88EE190E0A70196010E94EB
:100F1000890C21503109410951095695479537955A
:100F20002795EC85FD853083EE85FF852083188E1F
:100F3000EC89FD89B082EA89FB89808180618083A8
:100F4000EA89FB89808188608083EA89FB898081C6
:100F500080688083EA89FB8980818F7D8083DF912F
:100F6000CF91FF90EF90DF90CF90BF9008951F92A8
:100F70000F920FB60F9211242F938F939F93EF939D
:100F8000FF93E0918B01F0918C018081E0919101C0
:100F9000F091920182FD12C09081809194018F5F47
:100FA0008F7320919501821751F0E0919401F0E048
:100FB000E558FE4F958F8093940101C08081FF9189
:100FC000EF919F918F912F910F900FBE0F901F90D7
:100FD00018951F920F920FB60F9211242F933F93E3
:100FE0004F935F936F937F938F939F93AF93BF9331
:100FF000EF93FF938BE791E00E94AD06FF91EF9195
:10100000BF91AF919F918F917F916F915F914F9120
:101010003F912F910F900FBE0F901F9018958BE767
:1010200091E00E94720621E0892B09F420E0822FD2
:10103000089510927E0110927D0188EE93E0A0E069
:10104000B0E080937F0190938001A0938101B093E1
:10105000820189E391E090937C0180937B0185EC90
:1010600090E0909388018093870184EC90E09093C6
:101070008A018093890180EC90E090938C018093A9
:101080008B0181EC90E090938E0180938D0182EC36
:1010900090E09093900180938F0186EC90E0909384
:1010A00092018093910110929401109295011092F7
:1010B000960110929701089508950E9437050E94A5
:1010C0005C080E948D00CFE9D6E00E94B500209711
:1010D000E1F30E949F06F9CFCF92DF92EF92FF9249
:1010E0000F931F93CF93DF936C017A01EB01E60E10
:1010F000F71E00E010E0CE15DF0561F06991D60122
:10110000ED91FC910190F081E02DC6010995080F49
:10111000191FF1CFC801DF91CF911F910F91FF905F
:10112000EF90DF90CF9008956115710581F0DB019C
:101130000D900020E9F7AD0141505109461B570BB6
:10114000DC01ED91FC910280F381E02D099480E0B7
:1011500090E008950C949408DC01ED91FC910190CD
:10116000F081E02D09940F931F93CF93DF93EC014F
:101170006DE00E94AC088C016AE0CE010E94AC08D0
:10118000800F911FDF91CF911F910F9108950F93C1
:101190001F93CF93DF93EC010E9494088C01CE0142
:1011A0000E94B308800F911FDF91CF911F910F9183
:1011B00008958F929F92AF92BF92CF92DF92EF925B
:1011C000FF920F931F93CF93DF93CDB7DEB7A19715
:1011D0000FB6F894DEBF0FBECDBF7C01C42EE52F45
:1011E000CB01D22E19A221E02D1510F02AE0D22E2B
:1011F0008E010F5D1F4F8D2C912CA12CB12C6C2DCD
:101200007E2FA50194010E94890C8C2DD29E8019FD
:101210001124015011098A3014F4805D01C0895CE9
:10122000F8018083211531054105510521F0C22EB9
:10123000E32FCA01E4CFB801C7010E949408A19628
:101240000FB6F894DEBF0FBECDBFDF91CF911F91D7
:101250000F91FF90EF90DF90CF90BF90AF909F9055
:101260008F900895CF92DF92EF92FF920F931F938A
:10127000CF93DF93EC016A017B012115310579F4ED
:10128000E881F9810190F081E02D642FDF91CF9109
:101290001F910F91FF90EF90DF90CF9009942A302B
:1012A0003105E9F477FF1AC06DE20E94AC088C01A9
:1012B00044275527BA014C195D096E097F092AE0B8
:1012C000CE010E94D908800F911FDF91CF911F910D
:1012D0000F91FF90EF90DF90CF9008952AE0B70133
:1012E000A601CE01DF91CF911F910F91FF90EF905A
:1012F000DF90CF900C94D9084F925F926F927F92BB
:101300008F929F92AF92BF92CF92DF92EF92FF9215
:101310000F931F93CF93DF93EC016A017B01B22EF1
:101320009A01AB01C701B6010E94850C882319F010
:1013300065E471E027C026013701E89477F82FEFC4
:101340003FEF4FE75FE7C301B2010E94850C8111B7
:101350000DC02FEF3FEF4FE75FE7C301B2010E94DF
:10136000CF0A18161CF469E471E00CC02FEF3FEFB0
:101370004FE75FE4C701B6010E941E0C1816ACF4DB
:101380006DE471E0CE01DF91CF911F910F91FF903D
:10139000EF90DF90CF90BF90AF909F908F907F9015
:1013A0006F905F904F900C9494082FEF3FEF4FE7B2
:1013B0005FECC701B6010E94CF0A87FDE1CF20E0B4
:1013C00030E0A901C701B6010E94CF0A87FF0AC019
:1013D0006DE2CE010E94AC088C01F7FAF094F7F8A8
:1013E000F09402C000E010E0A12C60E070E080E02A
:1013F0009FE3AB1441F020E030E040E251E40E9472
:10140000D30AA394F6CF9B01AC01C701B6010E9499
:101410006B0A6B017C010E94400B2B013C010E9476
:101420006C0B9B01AC01C701B6010E946A0A6B01FB
:101430007C012AE0B301A201CE010E94D908080F65
:10144000191FBB2039F061E571E0CE010E949408BC
:10145000080F191F7B2C772041F120E030E040E29B
:1014600051E4C701B6010E94220C6B017C010E946D
:101470003B0B4B01AA2497FCA094BA2C2AE030E045
:10148000B501A401CE010E943209080F191FC50140
:10149000B4010E946E0B9B01AC01C701B6010E9412
:1014A0006A0A6B017C017A94D6CFC801DF91CF9193
:1014B0001F910F91FF90EF90DF90CF90BF90AF9072
:1014C0009F908F907F906F905F904F9008950C94B5
:1014D0007C0908955058BB27AA270ED075C166D144
:1014E00030F06BD120F031F49F3F11F41EF45BC15A
:1014F0000EF4E095E7FB51C1E92F77D180F3BA17DD
:10150000620773078407950718F071F49EF58FC181
:101510000EF4E0950B2EBA2FA02D0B01B90190010E
:101520000C01CA01A0011124FF27591B99F0593F52
:1015300050F4503E68F11A16F040A22F232F342F9A
:101540004427585FF3CF469537952795A795F040E8
:101550005395C9F77EF41F16BA0B620B730B840BFD
:10156000BAF09150A1F0FF0FBB1F661F771F881FB5
:10157000C2F70EC0BA0F621F731F841F48F487950D
:1015800077956795B795F7959E3F08F0B3CF9395FC
:10159000880F08F09927EE0F979587950895D9D071
:1015A00008F481E008950CD00FC107D140F0FED0BF
:1015B00030F021F45F3F19F0F0C0511139C1F3C090
:1015C00014D198F39923C9F35523B1F3951B550B07
:1015D000BB27AA2762177307840738F09F5F5F4F06
:1015E000220F331F441FAA1FA9F333D00E2E3AF047
:1015F000E0E830D091505040E695001CCAF729D061
:10160000FE2F27D0660F771F881FBB1F26173707AF
:101610004807AB07B0E809F0BB0B802DBF01FF27DF
:1016200093585F4F2AF09E3F510568F0B6C000C145
:101630005F3FECF3983EDCF3869577956795B79519
:10164000F7959F5FC9F7880F911D9695879597F934
:101650000895E1E0660F771F881FBB1F62177307AD
:101660008407BA0720F0621B730B840BBA0BEE1FC2
:1016700088F7E095089504D06894B111D9C0089511
:10168000BCD088F09F5790F0B92F9927B751A0F0A0
:10169000D1F0660F771F881F991F1AF0BA95C9F706
:1016A00012C0B13081F0C3D0B1E00895C0C0672F3F
:1016B000782F8827B85F39F0B93FCCF386957795B6
:1016C0006795B395D9F73EF490958095709561959F
:1016D0007F4F8F4F9F4F0895E89409C097FB3EF4CA
:1016E00090958095709561957F4F8F4F9F4F99236F
:1016F000A9F0F92F96E9BB279395F69587957795ED
:101700006795B795F111F8CFFAF4BB0F11F460FFAC
:101710001BC06F5F7F4F8F4F9F4F16C0882311F004
:1017200096E911C0772321F09EE8872F762F05C018
:10173000662371F096E8862F70E060E02AF09A95B3
:10174000660F771F881FDAF7880F9695879597F9A8
:101750000895990F0008550FAA0BE0E8FEEF161642
:101760001706E807F907C0F012161306E407F50795
:1017700098F0621B730B840B950B39F40A2661F009
:10178000232B242B252B21F408950A2609F4A140AC
:10179000A6958FEF811D811D089597F99F6780E8B9
:1017A00070E060E008959FEF80EC089500240A94B3
:1017B0001616170618060906089500240A9412162C
:1017C0001306140605060895092E0394000C11F45F
:1017D000882352F0BB0F40F4BF2B11F460FF04C00C
:1017E0006F5F7F4F8F4F9F4F089557FD9058440F65
:1017F000551F59F05F3F71F04795880F97FB991F70
:1018000061F09F3F79F0879508951216130614062C
:10181000551FF2CF4695F1DF08C0161617061806B9
:10182000991FF1CF86957105610508940895E89494
:10183000BB2766277727CB0197F908958ADF08F43D
:101840008FEF08950BD0C0CFB1DF28F0B6DF18F0CE
:10185000952309F0A2CFA7CF1124EACFC6DFA0F3CA
:10186000959FD1F3950F50E0551F629FF001729F35
:10187000BB27F00DB11D639FAA27F00DB11DAA1F54
:10188000649F6627B00DA11D661F829F2227B00DA1
:10189000A11D621F739FB00DA11D621F839FA00D2C
:1018A000611D221F749F3327A00D611D231F849F7C
:1018B000600D211D822F762F6A2F11249F575040D3
:1018C0008AF0E1F088234AF0EE0FFF1FBB1F661F6E
:1018D000771F881F91505040A9F79E3F510570F027
:1018E0005CCFA6CF5F3FECF3983EDCF3869577950F
:1018F0006795B795F795E7959F5FC1F7FE2B880F22
:10190000911D9695879597F9089523DF880B990B7C
:101910000895A1E21A2EAA1BBB1BFD010DC0AA1F30
:10192000BB1FEE1FFF1FA217B307E407F50720F048
:10193000A21BB30BE40BF50B661F771F881F991FC3
:101940001A9469F760957095809590959B01AC010C
:10195000BD01CF010895EE0FFF1F0590F491E02D1A
:061960000994F894FFCF8A
:1019660041726475696E6F20534854313100537566
:1019760068753A20002063656C73697573004B6562
:101986006C656D626162616E3A20002500000000A0
:1019960000C5026C0800000000F0066C0872068B99
:1019A600067D06CE066E616E00696E66006F76660F
:0419B600002E0000FF
:00000001FF
